:0603B200011F00011E0006
:1002CB00E4F50812036012039DE51F60FCE4F51FC3
:1002DB00E51B75F008A4FFAEF0240EF974003EFA8E
:1002EB007BFFC003C00174162FF974003E8B0CF515
:0C02FB000D890ED001D00312013E80CD11
:10039D005389F0438901758AF0758CD8C28DD2A925
:0503AD00D2AFD28C224A
:03000B0002038568
:02038500C0E0D6
:10038700758AF0758CD8051EE51E640A7005F51E82
:03039700751F01CE
:03039A00D0E0327E
:10000E003C42464A5262423C081808080808081C3E
:10001E003C4202040810207E3C42021C0202423C7A
:10002E00040C1424447E04047E40407C0202423CB4
:10003E003C42407C4242423C7E4202040810101078
:10004E003C42423C4242423C3C42423C0202423C26
:10005E0018182424427E42427C42427C4242427C18
:10006E001C2240404040221C784442424242447886
:10007E007E40407C4040407E7E40407C4040404040
:10008E001C2240404E42221C4242427E424242428A
:10009E001C0808080808081C3C080808080848300E
:1000AE004448506060504844404040404040407C8E
:1000BE0081C3A59981818181004262524A464200E4
:1000CE003C4242424242423C3C2222223C202020E0
:1000DE001C2222222226221D3C2222223C242221C4
:1000EE00001E20203E02023C003E080808080808B8
:1000FE00424242424242221C424242424242241860
:10010E0000494949492A1C00004122140814224181
:10011E004122140808080808007F02040810207FF6
:10012E00087F49497F080808FEBA92BA929ABAFE29
:0C03B800011C08011A08011D10011B00A7
:10028C00E4FED2A1C2A0C2A1EEC3940874809480F3
:10029C00500FEF3392A2D2A0C2A0EF25E0FF0E8048
:1002AC00E7E4FEEEC3940874809480500FED339213
:0E02BC00A2D2A0C2A0ED25E0FD0E80E7D2A1E7
:0102CA002211
:060334008B178A188919DD
:10033A00E4FCECC39408748094805019EC2451FFB7
:10034A00AB17AA18A9198C82758300120307FD122C
:05035A00028C0C80DDA7
:01035F00227B
:06013E008B098A0A890BFF
:10014400E4FFE51AD39408748094805035EFC39487
:10015400087480948040030201E3AB09AA0AA90B46
:100164008F82758300120307FEC37408951AFDF885
:10017400EE088002C313D8FCFE740F2FF8A6060FF6
:1001840080CBE4FFEFC39408748094805051AB0992
:10019400AA0AA90B8F82758300120307FEE51A24AD
:1001A400F8FDF8EE088002C333D8FCFE740F2FF874
:1001B400A606740F2FF8C000E6FEAB0CAA0DA90E1C
:1001C4008F82758300120307FDC37410951AFCF81F
:1001D400ED088002C313D8FC4ED000F60F80A505AD
:1001E4001AE51AB51D0D851C1A051BE51B640A705A
:0C01F40002F51B7B007A00790F02033437
:100360007D577F5B12028C7D507F5A12028CE4FD18
:100370007F5912028C7BFF7A00790E1203347D01C3
:050380007F5C02028C0D
:0D03C5007DEFDDFEEF1F70011E144E70F580
:0103D2002208
:03000000020200F9
:0C020000787FE4F6D8FD75811F020247EC
:10030700BB010CE58229F582E5833AF583E02250AB
:1003170006E92582F8E622BBFE06E92582F8E222F5
:0D032700E58229F582E5833AF583E493220F
:10020C000202CBE493A3F8E493A34003F68001F23B
:10021C0008DFF48029E493A3F85407240CC8C333F3
:10022C00C4540F4420C8834004F456800146F6DFC2
:10023C00E4800B01020408102040809003B2E47E9D
:10024C00019360BCA3FF543F30E509541FFEE493B7
:10025C00A360010ECF54C025E060A840B8E493A37E
:10026C00FAE493A3F8E493A3C8C582C8CAC583CAA9
:10027C00F0A3C8C582C8CAC583CADFE9DEE780BE61
:0103C4000038
:00000001FF
